:100000000C9462000C948A000C948A000C948A0070
:100010000C948A000C948A000C948A000C948A0038
:100020000C948A000C948A000C948A000C94D105DC
:100030000C948A000C948A000C948A000C948A0018
:100040000C9487050C948A000C9455050C942F058C
:100050000C948A000C948A000C948A000C948A00F8
:100060000C948A000C948A000000000024002700F1
:100070002A0000000000250028002B0000000000DE
:1000800023002600290004040404040404040202DA
:100090000202020203030303030301020408102007
:1000A0004080010204081020010204081020000012
:1000B0000008000201000003040700000000000027
:1000C0000000430711241FBECFEFD8E0DEBFCDBF35
:1000D00011E0A0E0B1E0EAEBF7E102C005900D927B
:1000E000A438B107D9F722E0A4E8B1E001C01D921D
:1000F000A734B207E1F710E0C2E6D0E004C02197D0
:10010000FE010E940309C136D107C9F70E942306E8
:100110000C94DB0B0C940000AF92BF92CF92DF9255
:10012000EF92FF920F931F93CF93DF936C017B01AC
:100130008B01040F151FEB015E01AE18BF08C0173D
:10014000D10759F06991D601ED91FC910190F081B0
:10015000E02DC6010995892B79F7C501DF91CF9173
:100160001F910F91FF90EF90DF90CF90BF90AF90D5
:100170000895FC01538D448D252F30E0842F90E0AD
:10018000821B930B541710F0CF9608950197089592
:10019000FC01918D828D981761F0A28DAE0FBF2F5B
:1001A000B11D5D968C91928D9F5F9F73928F90E0B1
:1001B00008958FEF9FEF0895FC01918D828D981720
:1001C00031F0828DE80FF11D858D90E008958FEF5D
:1001D0009FEF0895FC01918D228D892F90E0805C26
:1001E0009F4F821B91098F73992708958AE991E0A7
:1001F0000E94EA0021E0892B09F420E0822F089573
:1002000080E090E0892B29F00E94F60081110C9487
:1002100000000895FC01A48DA80FB92FB11DA35AA9
:10022000BF4F2C91848D90E001968F739927848F16
:10023000A689B7892C93A089B1898C918370806439
:100240008C93938D848D981306C00288F389E02DDA
:1002500080818F7D80830895EF92FF920F931F938B
:10026000CF93DF93EC0181E0888F9B8D8C8D981369
:100270001AC0E889F989808185FF15C09FB7F89475
:10028000EE89FF896083E889F989808183708064C1
:1002900080839FBF81E090E0DF91CF911F910F910C
:1002A000FF90EF900895F62E0B8D10E00F5F1F4F1B
:1002B0000F731127E02E8C8D8E110CC00FB607FC2A
:1002C000FACFE889F989808185FFF5CFCE010E94B8
:1002D0000A01F1CFEB8DEC0FFD2FF11DE35AFF4F1B
:1002E000F0829FB7F8940B8FEA89FB898081806246
:1002F000CFCFCF93DF93EC01888D8823B9F0AA8903
:10030000BB89E889F9898C9185FD03C0808186FDD0
:100310000DC00FB607FCF7CF8C9185FFF2CF80811F
:1003200085FFEDCFCE010E940A01E9CFDF91CF9189
:100330000895833081F028F4813099F08230A9F05B
:1003400008958730A9F08830C9F08430B1F48091E5
:1003500080008F7D03C0809180008F778093800024
:10036000089584B58F7784BD089584B58F7DFBCFC4
:100370008091B0008F778093B00008958091B00095
:100380008F7DF9CFCF93DF93282F30E0F901E2552D
:10039000FF4F8491F901E656FF4FD491F901EA57D6
:1003A000FF4FC491CC23A1F081110E949901EC2F41
:1003B000F0E0EE0FFF1FE458FF4FA591B491EC91D0
:1003C000ED2381E090E009F480E0DF91CF91089582
:1003D00080E090E0FACF1F93CF93DF93282F30E097
:1003E000F901E255FF4F8491F901E656FF4FD49190
:1003F000F901EA57FF4FC491CC23A9F0162F8111C0
:100400000E949901EC2FF0E0EE0FFF1FEE58FF4F16
:10041000A591B4918FB7F894EC91111108C0D095C3
:10042000DE23DC938FBFDF91CF911F910895DE2BE8
:10043000F8CFCF93DF9390E0FC01E656FF4F249175
:100440008A579F4FFC0184918823D1F090E0880F58
:10045000991FFC01E859FF4FA591B491FC01EE589A
:10046000FF4FC591D491623071F49FB7F8943C91DD
:10047000822F809583238C93E8812E2B28839FBF26
:10048000DF91CF9108958FB7F894EC912E2B2C9398
:100490008FBFF6CF089590E080E008959C01205F23
:1004A0003F4FFC011192CF01E217F307D1F70895F6
:1004B0000F931F93CF93DF93182F092FC0919801AB
:1004C000D0919901888199810E944E0290E080E04C
:1004D000EA81FB81E80FF91F2081222349F0E8819E
:1004E000F981E80FF91F208301968031910581F78A
:1004F0008A819B810E944E02E12FF02F90E080E0E4
:100500002191211108C081E080938E01DF91CF916C
:100510001F910F910895AA81BB81A80FB91F2C9339
:1005200001968031910561F7EECF83E00E94C20110
:10053000892BA9F580918C0190918D01009739F458
:1005400081E090E090938D0180938C010895019754
:1005500051F582E090E090938D0180938C01809121
:100560000201909103018531910584F005979093E4
:1005700003018093020180910C0190910D01059778
:1005800097FD08C090930D0180930C0182E491E0E7
:100590000C94580210920D0110920C01F7CF10929A
:1005A0008D0110928C01089584E00E94C201892B74
:1005B00071F580918A0190918B01009739F481E067
:1005C00090E090938B0180938A010895019719F52B
:1005D00082E090E090938B0180938A0180910201E8
:1005E000909103018436910574F40596909303016C
:1005F0008093020180910C0190910D0105969093DA
:100600000D0180930C0180E591E00C94580210924A
:100610008B0110928A010895CF93DF938091880116
:1006200090918901892BE1F4C0918601D0918701D5
:1006300061E0C130D10509F460E0862F90E090932D
:1006400087018093860185E00E94EB0187E691E0B7
:10065000219711F08EE591E0DF91CF910C94580233
:10066000DF91CF910895CF93DF9386E00E94C2017E
:10067000892BE9F58091840190918501009749F4D7
:1006800081E090E09093850180938401DF91CF9188
:1006900008950197D9F782E090E0909385018093C7
:1006A0008401C0918801D091890161E0C130D105F8
:1006B00009F460E0862F90E090938901809388018F
:1006C00087E00E94EB0181E791E0C130D10511F490
:1006D0008AE791E00E9458022197C1F680910201B9
:1006E0009091030190930D0180930C01CFCF109254
:1006F000850110928401CACFA0913902B0913A02CB
:10070000ED91FC9111970190F081E02D682FCD01C2
:100710000994CF93DF93EC0160E08E810E94EB019E
:1007200061E08E810E94EB0160E08E810E94EB010E
:100730008BE891E00197F1F7DF91CF910895CF9287
:10074000DF92EF92FF920F931F93CF93DF936C0191
:100750007C0187E0E80EF11CD0E0C0E0062F10E03D
:10076000B8010C2E02C0759567950A94E2F7617086
:10077000F70181917F010E94EB012196C430D105E0
:1007800079F7C601DF91CF911F910F91FF90EF9004
:10079000DF90CF900C948903CF92DF92EF92FF927B
:1007A0000F931F93CF93DF93EC01F62E642F8C8170
:1007B0000E94EB018D818F3F19F060E00E94EB01F8
:1007C0000F2D10E08F8584FF25C06E0187E0C80ED5
:1007D000D11CF12CE12CB8010E2C02C07595679547
:1007E0000A94E2F76170F60181916F010E94EB01BA
:1007F000FFEFEF1AFF0A88E0E816F10461F7CE0177
:10080000DF91CF911F910F91FF90EF90DF90CF90EC
:100810000C948903B80184E0759567958A95E1F792
:10082000CE010E949F036F2DCE01DF91CF911F91CA
:100830000F91FF90EF90DF90CF900C949F0341E0D9
:100840000E94CC0381E090E0089540E00C94CC033A
:10085000643008F063E0FC012389621710F06FEF49
:10086000620FFC01E60FF11D648960680C94250499
:100870000F931F93CF93DF93EC01423018F08F85D5
:1008800088608F874B8B1C8A80E48D8B6E8B605CBD
:100890006F8B61E08C810E9419028D818F3F19F06E
:1008A00061E00E94190261E08E810E9419028E01AE
:1008B00098012C1B3D0B8F8584FD0DC084E090E0DA
:1008C0000F5F1F4F281739074CF461E0F80186814C
:1008D0000E941902EDCF88E090E0F2CF8BE39DE01B
:1008E0000197F1F760E08C810E94EB0160E08E815E
:1008F0000E94EB018D818F3F19F060E00E94EB01B7
:100900006F8564FD39C063E0CE010E949F030BE454
:1009100016E4C8010197F1F763E0CE010E949F033E
:10092000C8010197F1F763E0CE010E949F0383E5C0
:1009300092E00197F1F762E0CE010E949F036F857C
:100940006062CE010E94250484E0888B6CE0CE01B9
:100950000E94250461E0CE010E9425048BE39FE103
:100960000197F1F782E0898B66E0CE01DF91CF91AC
:100970001F910F910C9425046062CE010E94250402
:100980008BE496E40197F1F76F856062CE010E94D7
:10099000250483E592E00197F1F76F856062CE014F
:1009A0000E942504CCCF0F931F93CF93DF93D0E009
:1009B000C0E08091390290913A0220913B0230913F
:1009C0003C02C217D307ACF46C2F0E94280410E03D
:1009D00000E08091370290913802081719073CF423
:1009E00080E290E00E941F090F5F1F4FF2CF219617
:1009F000E0CF60E0DF91CF911F910F910C9428041C
:100A000080918E01882351F10E94D30460E080918F
:100A1000390290913A020E942804E0919801F091E5
:100A2000990181818F9380818F930E94090961E0F0
:100A30008091390290913A020E942804E091980135
:100A4000F091990183818F9382818F930E9409098C
:100A500010928E010F900F900F900F9008951F929B
:100A60000F920FB60F9211242F933F934F935F93E2
:100A70006F937F938F939F93AF93BF93EF93FF9366
:100A80008AE991E00E940A01FF91EF91BF91AF9135
:100A90009F918F917F916F915F914F913F912F9196
:100AA0000F900FBE0F901F9018951F920F920FB6C8
:100AB0000F9211242F938F939F93EF93FF93E091C5
:100AC000AA01F091AB018081E091B001F091B101F8
:100AD00082FD1BC090818091B3018F5F8F73209145
:100AE000B401821741F0E091B301F0E0E656FE4F09
:100AF000958F8093B301FF91EF919F918F912F91EB
:100B00000F900FBE0F901F9018958081F4CF1F9209
:100B10000F920FB60F9211242F933F938F939F93B1
:100B2000AF93BF938091940190919501A09196010C
:100B3000B09197013091930123E0230F2D3758F5A1
:100B40000196A11DB11D2093930180939401909370
:100B50009501A0939601B093970180918F01909198
:100B60009001A0919101B09192010196A11DB11D3A
:100B700080938F0190939001A0939101B093920183
:100B8000BF91AF919F918F913F912F910F900FBE89
:100B90000F901F90189526E8230F0296A11DB11DF6
:100BA000D2CF1F920F920FB60F921124EF92FF92A5
:100BB0000F931F932F933F934F935F936F937F9365
:100BC0008F939F93AF93BF93CF93DF93EF93FF9355
:100BD000CAE0D1E08AE1E82E81E0F82E00E011E0E1
:100BE00088819981019789939993181619065CF069
:100BF000D701ED91FC910995F80180819181FE0169
:100C0000329791838083F2E0EF0EF11C0E5F1F4F4D
:100C100081E0C431D80721F7FF91EF91DF91CF91A7
:100C2000BF91AF919F918F917F916F915F914F9104
:100C30003F912F911F910F91FF90EF900F900FBE5A
:100C40000F901F901895789484B5826084BD84B508
:100C5000816084BD85B5826085BD85B5816085BDB7
:100C600080916E00816080936E001092810080916F
:100C700081008260809381008091810081608093F7
:100C80008100809180008160809380008091B1001C
:100C900084608093B1008091B00081608093B00047
:100CA00080917A00846080937A0080917A008260DB
:100CB00080937A0080917A00816080937A0080919D
:100CC0007A00806880937A001092C100E091AA01B6
:100CD000F091AB0182E08083E091A601F091A70141
:100CE0001082E091A801F091A9018FEC808310920D
:100CF000B201E091AE01F091AF0186E08083E09116
:100D0000AC01F091AD01808180618083E091AC0104
:100D1000F091AD01808188608083E091AC01F09119
:100D2000AD01808180688083E091AC01F091AD01DC
:100D300080818F7D808388E190E00E94D707EC015D
:100D40001B821A828AE391E0998388838DE08C83E9
:100D50008FEF8D838CE08E838BE08F838AE0888792
:100D600089E0898788E08A871B861C861D861E8607
:100D70001F8641E060E1CE010E943804D0933A0220
:100D8000C093390242E060E1CE010E94380480E164
:100D900090E0909338028093370282E090E0909345
:100DA0003C0280933B020E94D30484E090E00E94C6
:100DB000D707EC01909399018093980181E190E02D
:100DC0000E94D707998388830E944E02E881F981A7
:100DD000108A81E190E00E94D7079B838A830E945A
:100DE0004E02EA81FB81108A70E060E08CE793E0BC
:100DF0000E94700790933E0280933D0290934002C0
:100E000080933F02909342028093410261E087E029
:100E10000E94190262E086E00E94190261E085E00A
:100E20000E94190262E084E00E94190262E083E0FD
:100E30000E9419021092800010928100809181001E
:100E4000886080938100809181008260809381001E
:100E50008FE39CE99093890080938800109285002D
:100E600010928400B19A80916F00826080936F002D
:100E7000C0E0D0E02097F1F30E94F6008823D1F380
:100E80000E940000F7CFEAE9F1E01382128288EEB7
:100E900093E0A0E0B0E084839583A683B78388E2E3
:100EA00091E09183808385EC90E09587848784EC42
:100EB00090E09787868780EC90E0918B808B81EC27
:100EC00090E0938B828B82EC90E0958B848B86EC08
:100ED00090E0978B868B118E128E138E148E089550
:100EE0000F931F93CF93DF93009759F4611571050A
:100EF00041F4F0E0E0E0CF01DF91CF911F910F913D
:100F000008958B01EC016EE070E081E090E00E94BA
:100F1000BB07FC01892B69F380E883830115110568
:100F200071F01387028781E8838380913D0290915D
:100F30003E02892B21F4F0933E02E0933D0220977C
:100F4000D1F2D187C08783818260838380913F0201
:100F500090914002892B79F6F0934002E0933F0292
:100F60008091410290914202892B29F6F09342022E
:100F7000E0934102C0CF0F931F93CF93DF93869FDF
:100F80008001879F100D969F100D1124C8010E94AB
:100F9000D707EC01009729F0A80170E060E00E94FB
:100FA000FC08CE01DF91CF911F910F9108950F930F
:100FB0001F93CF93DF938230910510F482E090E08D
:100FC000E0914502F091460230E020E0B0E0A0E080
:100FD000309799F42115310509F44AC0281B390BC3
:100FE00024303105D8F58A819B816115710589F11D
:100FF000FB0193838283FE0111C0408151810281F4
:10100000138148175907E0F04817590799F41097CA
:1010100061F012960C93129713961C933296CF019F
:10102000DF91CF911F910F91089500934502109386
:101030004602F4CF2115310551F04217530738F01D
:10104000A901DB019A01BD01DF01F801C1CFEF0168
:10105000F9CF9093460280934502CDCFFE01E20F77
:10106000F31F819391932250310939832883D7CF7D
:101070002091430230914402232B41F42091160128
:1010800030911701309344022093430220911401C0
:10109000309115012115310541F42DB73EB740912E
:1010A000180150911901241B350BE0914302F09176
:1010B0004402E217F307A0F42E1B3F0B2817390751
:1010C00078F0AC014E5F5F4F2417350748F04E0FA4
:1010D0005F1F5093440240934302819391939FCFAB
:1010E000F0E0E0E09CCFCF93DF930097E9F0FC01C4
:1010F000329713821282A0914502B0914602ED010F
:1011000030E020E01097A1F420813181820F931FFD
:1011100020914302309144022817390709F061C039
:10112000F0934402E0934302DF91CF910895EA01E6
:10113000CE17DF07E8F54A815B819E014115510515
:10114000B1F7E901FB83EA8349915991C40FD51F97
:10115000EC17FD0761F4808191810296840F951F41
:10116000E90199838883828193819B838A83F0E05C
:10117000E0E012968D919C9113970097B9F52D910F
:101180003C911197CD010296820F931F209143024B
:10119000309144022817390739F6309751F51092EB
:1011A000460210924502B0934402A0934302BCCF82
:1011B000D383C28340815181840F951FC817D907FB
:1011C00061F44E5F5F4F88819981480F591F5183A9
:1011D00040838A819B81938382832115310509F0A5
:1011E000B0CFF0934602E09345029ECFFD01DC01B3
:1011F000C0CF13821282D7CFDC0101C06D93415062
:101200005040E0F70895EE0FFF1F0590F491E02D98
:101210000994B0E0A0E0EFE0F9E00C94B40BAE016B
:101220004B5F5F4FFA0161917191AF0180913F0275
:10123000909140020E942609E2E00C94D00B60914C
:101240003F02709140020E94160B0895ABE0B0E09F
:10125000ECE2F9E00C94A40B7C013B018A01FC0157
:1012600017821682838181FFC8C1CE0101965C017D
:10127000F7019381F30193FD859193FF81913F01E4
:10128000882309F453C1853239F493FD859193FF86
:1012900081913F01853229F4B70190E00E94160B3D
:1012A000E7CF912C212C312CFFE1F31538F08B3254
:1012B00011F190F4803209F1833229F137FC3CC0FE
:1012C00020ED280F2A3050F536FE20C08AE0989E87
:1012D000200D1124922E06C08D3291F0803371F7CB
:1012E000689430F8F30193FD859193FF81913F015C
:1012F0008111DACF21C0689431F8689432F8F2CFC6
:10130000689433F8EFCF689434F8ECCFEAE02E9E7F
:10131000200D1124222E689435F8E4CF8E3229F462
:1013200036FC04C1689436F8DDCF8C3619F4689425
:1013300037F8D8CF8836B1F2982F9F7D95549330E7
:10134000E0F08336A1F18337C1F1833509F063C042
:101350002801F2E04F0E511CF801C080D180692DA8
:1013600070E036FC02C06FEF7FEFC6010E94000BF9
:101370004C01689437F882010AC00C5F1F4FFFE3ED
:10138000F98388248394912C6501E89437F833FE1F
:101390002DC0522C8114910471F5552009F468CFA9
:1013A000B70180E290E00E94160B5A94F6CFF80144
:1013B000808189830E5F1F4FE4CF2801F2E04F0E3A
:1013C000511CF801C080D180692D70E036FC02C04C
:1013D0006FEF7FEFC6010E940B0B4C018201D5CF4E
:1013E000B70180E290E00E94160B2A942814190499
:1013F00009F0B0F7CECFF60137FC859137FE819129
:101400006F01B70190E00E94160B51105A94F1E061
:101410008F1A9108BFCF843619F0893609F077C04A
:10142000F80137FE6BC060817181828193810C5F0E
:101430001F4FF32DFF763F2E97FF09C090958095A3
:10144000709561957F4F8F4F9F4F689437F82AE0D2
:1014500030E0A5010E94460BC82ECA188C2C432CE4
:1014600036FE0CC0E89440F8C91440F434FE05C0C0
:1014700032FC03C0F32DFE7E4F2E892C44FE95C016
:10148000FE01EC0DF11D8081803309F087C0242D11
:10149000297E422E842D8870582E43FC95C040FE34
:1014A0008FC09C2C821418F42C0C922C981844FE9B
:1014B00091C0B70180E390E00E94160B42FE09C084
:1014C00088E790E041FE02C088E590E0B7010E9405
:1014D000160BC91408F48AC0CA94D12C9FEFC91AFC
:1014E000D90ACA0CDB1CF60182916F01B70190E0AA
:1014F0000E94160BAC14BD04B1F74FCF608171810F
:10150000072E000C880B990B0E5F1F4F92CFD32C28
:10151000E894D4F82AE030E0853739F1232D297F8B
:10152000D22E8F3601F148F48835A9F0F701868173
:1015300097812B96E2E10C94C00B803749F08837F5
:10154000A9F7D4FE02C06894D2F820E130E00DC0C3
:101550006894D4F8F6CF34FE03C0822F8660D82E6C
:1015600020E132E002C028E030E0F801D7FE0FC0F1
:1015700060817181828193810C5F1F4FA5010E9460
:10158000460BC82ECA183D2CE89437F867CF608107
:10159000718190E080E00E5F1F4FF0CF42FC02C0EF
:1015A000839478CF8394839475CF842D867809F4BF
:1015B00071CFF6CFB70180E290E00E94160B8394C2
:1015C0008214C0F3512C73CF522C5818821408F493
:1015D0006ECFF8CF842D867809F47BCF8BE241FE65
:1015E00080E247FC8DE2B70190E071CFB70180E364
:1015F00090E00E94160B9A946CCF8FEF9FEF99CFDB
:10160000FC010590615070400110D8F780959095CD
:101610008E0F9F1F0895FC016150704001900110D2
:10162000D8F7809590958E0F9F1F08950F931F9365
:10163000CF93DF93182F092FEB018B8181FD09C018
:101640001FEF0FEF812F902FDF91CF911F910F91FF
:10165000089582FF14C02E813F818C819D812817BF
:1016600039073CF4E881F981CF0101969983888399
:1016700010838E819F8101969F838E83E3CFE885BF
:10168000F985812F0995892BA1F3DACFFA01AA27D1
:10169000283051F1203181F1E8946F936E7F6E5FB5
:1016A0007F4F8F4F9F4FAF4FB1E03ED0B4E03CD063
:1016B000670F781F891F9A1FA11D680F791F8A1F46
:1016C000911DA11D6A0F711D811D911DA11D20D0AD
:1016D00009F468943F912AE0269F11243019305D67
:1016E0003193DEF6CF010895462F4770405D419358
:1016F000B3E00FD0C9F7F6CF462F4F70405D4A33A5
:1017000018F0495D31FD4052419302D0A9F7EACF6C
:10171000B4E0A6959795879577956795BA95C9F79B
:1017200000976105710508959B01AC010A2E06948E
:101730005795479537952795BA95C9F7620F731F47
:10174000841F951FA01D08952F923F924F925F9284
:101750006F927F928F929F92AF92BF92CF92DF92C1
:10176000EF92FF920F931F93CF93DF93CDB7DEB726
:10177000CA1BDB0B0FB6F894DEBF0FBECDBF0994BA
:101780002A88398848885F846E847D848C849B8411
:10179000AA84B984C884DF80EE80FD800C811B811F
:1017A000AA81B981CE0FD11D0FB6F894DEBF0FBE4E
:0A17B000CDBFED010895F894FFCFBE
:1017BA0005003200050005000100010002000200D8
:1017CA000300020000004702800033030C03D40226
:1017DA0095020005000000002C018C00B900790177
:1017EA00EA00C800DC00000000001F048C004B0265
:1017FA004A0242746E2D33205052455353454400D9
:10180A0042746E2D322050524553534544004C6564
:10181A00642D32204F4E004C65642D32204F4646CF
:10182A00004C65642D31204F4E004C65642D3120EB
:04183A004F464600CF
:00000001FF
